{"abi":[{"type":"function","name":"getView","inputs":[{"name":"token","type":"address","internalType":"address"},{"name":"owner","type":"address","internalType":"address"},{"name":"spender","type":"address","internalType":"address"}],"outputs":[{"name":"viewData","type":"tuple","internalType":"struct AllowanceLens.PermitView","components":[{"name":"token","type":"address","internalType":"address"},{"name":"owner","type":"address","internalType":"address"},{"name":"spender","type":"address","internalType":"address"},{"name":"allowance","type":"uint256","internalType":"uint256"},{"name":"nonce","type":"uint256","internalType":"uint256"},{"name":"domainSeparator","type":"bytes32","internalType":"bytes32"},{"name":"name","type":"string","internalType":"string"},{"name":"symbol","type":"string","internalType":"string"}]}],"stateMutability":"view"}],"bytecode":{"object":"0x6080604052348015600e575f5ffd5b506108da8061001c5f395ff3fe608060405234801561000f575f5ffd5b5060043610610029575f3560e01c8063e062e00c1461002d575b5f5ffd5b61004760048036038101906100429190610473565b61005d565b6040516100549190610626565b60405180910390f35b610065610387565b5f8490505f85905085835f019073ffffffffffffffffffffffffffffffffffffffff16908173ffffffffffffffffffffffffffffffffffffffff168152505084836020019073ffffffffffffffffffffffffffffffffffffffff16908173ffffffffffffffffffffffffffffffffffffffff168152505083836040019073ffffffffffffffffffffffffffffffffffffffff16908173ffffffffffffffffffffffffffffffffffffffff16815250508073ffffffffffffffffffffffffffffffffffffffff1663dd62ed3e86866040518363ffffffff1660e01b815260040161014f929190610655565b602060405180830381865afa15801561016a573d5f5f3e3d5ffd5b505050506040513d601f19601f8201168201806040525081019061018e91906106a6565b8360600181815250508173ffffffffffffffffffffffffffffffffffffffff16637ecebe00866040518263ffffffff1660e01b81526004016101d091906106d1565b602060405180830381865afa1580156101eb573d5f5f3e3d5ffd5b505050506040513d601f19601f8201168201806040525081019061020f91906106a6565b8360800181815250508173ffffffffffffffffffffffffffffffffffffffff16633644e5156040518163ffffffff1660e01b8152600401602060405180830381865afa158015610261573d5f5f3e3d5ffd5b505050506040513d601f19601f820116820180604052508101906102859190610714565b8360a00181815250508073ffffffffffffffffffffffffffffffffffffffff166306fdde036040518163ffffffff1660e01b81526004015f60405180830381865afa1580156102d6573d5f5f3e3d5ffd5b505050506040513d5f823e3d601f19601f820116820180604052508101906102fe919061085d565b8360c001819052508073ffffffffffffffffffffffffffffffffffffffff166395d89b416040518163ffffffff1660e01b81526004015f60405180830381865afa15801561034e573d5f5f3e3d5ffd5b505050506040513d5f823e3d601f19601f82011682018060405250810190610376919061085d565b8360e0018190525050509392505050565b6040518061010001604052805f73ffffffffffffffffffffffffffffffffffffffff1681526020015f73ffffffffffffffffffffffffffffffffffffffff1681526020015f73ffffffffffffffffffffffffffffffffffffffff1681526020015f81526020015f81526020015f815260200160608152602001606081525090565b5f604051905090565b5f5ffd5b5f5ffd5b5f73ffffffffffffffffffffffffffffffffffffffff82169050919050565b5f61044282610419565b9050919050565b61045281610438565b811461045c575f5ffd5b50565b5f8135905061046d81610449565b92915050565b5f5f5f6060848603121561048a57610489610411565b5b5f6104978682870161045f565b93505060206104a88682870161045f565b92505060406104b98682870161045f565b9150509250925092565b6104cc81610438565b82525050565b5f819050919050565b6104e4816104d2565b82525050565b5f819050919050565b6104fc816104ea565b82525050565b5f81519050919050565b5f82825260208201905092915050565b8281835e5f83830152505050565b5f601f19601f8301169050919050565b5f61054482610502565b61054e818561050c565b935061055e81856020860161051c565b6105678161052a565b840191505092915050565b5f61010083015f8301516105885f8601826104c3565b50602083015161059b60208601826104c3565b5060408301516105ae60408601826104c3565b5060608301516105c160608601826104db565b5060808301516105d460808601826104db565b5060a08301516105e760a08601826104f3565b5060c083015184820360c08601526105ff828261053a565b91505060e083015184820360e0860152610619828261053a565b9150508091505092915050565b5f6020820190508181035f83015261063e8184610572565b905092915050565b61064f81610438565b82525050565b5f6040820190506106685f830185610646565b6106756020830184610646565b9392505050565b610685816104d2565b811461068f575f5ffd5b50565b5f815190506106a08161067c565b92915050565b5f602082840312156106bb576106ba610411565b5b5f6106c884828501610692565b91505092915050565b5f6020820190506106e45f830184610646565b92915050565b6106f3816104ea565b81146106fd575f5ffd5b50565b5f8151905061070e816106ea565b92915050565b5f6020828403121561072957610728610411565b5b5f61073684828501610700565b91505092915050565b5f5ffd5b5f5ffd5b7f4e487b71000000000000000000000000000000000000000000000000000000005f52604160045260245ffd5b61077d8261052a565b810181811067ffffffffffffffff8211171561079c5761079b610747565b5b80604052505050565b5f6107ae610408565b90506107ba8282610774565b919050565b5f67ffffffffffffffff8211156107d9576107d8610747565b5b6107e28261052a565b9050602081019050919050565b5f6108016107fc846107bf565b6107a5565b90508281526020810184848401111561081d5761081c610743565b5b61082884828561051c565b509392505050565b5f82601f8301126108445761084361073f565b5b81516108548482602086016107ef565b91505092915050565b5f6020828403121561087257610871610411565b5b5f82015167ffffffffffffffff81111561088f5761088e610415565b5b61089b84828501610830565b9150509291505056fea2646970667358221220aea347ef308961d79269200771401aa9288033796416d14de8c65e176b8d291164736f6c634300081e0033","linkReferences":{}},"methodIdentifiers":{"getView(address,address,address)":"e062e00c"},"id":20}